{
  "contractName": "SimpleDefi",
  "abi": [
    {
      "inputs": [
        {
          "internalType": "address",
          "name": "daiAddress",
          "type": "address"
        }
      ],
      "stateMutability": "nonpayable",
      "type": "constructor"
    },
    {
      "inputs": [
        {
          "internalType": "address",
          "name": "recipient",
          "type": "address"
        },
        {
          "internalType": "uint256",
          "name": "amount",
          "type": "uint256"
        }
      ],
      "name": "createTransfer",
      "outputs": [],
      "stateMutability": "nonpayable",
      "type": "function"
    }
  ],
  "bytecode": "0x608060405234801561001057600080fd5b506040516103ba3803806103ba8339818101604052810190610032919061008d565b806000806101000a81548173ffffffffffffffffffffffffffffffffffffffff021916908373ffffffffffffffffffffffffffffffffffffffff160217905550506100ff565b600081519050610087816100e8565b92915050565b60006020828403121561009f57600080fd5b60006100ad84828501610078565b91505092915050565b60006100c1826100c8565b9050919050565b600073ffffffffffffffffffffffffffffffffffffffff82169050919050565b6100f1816100b6565b81146100fc57600080fd5b50565b6102ac8061010e6000396000f3fe608060405234801561001057600080fd5b506004361061002b5760003560e01c80633ac172dd14610030575b600080fd5b61004a6004803603810190610045919061013d565b61004c565b005b60008054906101000a900473ffffffffffffffffffffffffffffffffffffffff1673ffffffffffffffffffffffffffffffffffffffff1663a9059cbb83836040518363ffffffff1660e01b81526004016100a79291906101c0565b602060405180830381600087803b1580156100c157600080fd5b505af11580156100d5573d6000803e3d6000fd5b505050506040513d601f19601f820116820180604052508101906100f99190610179565b505050565b60008135905061010d81610231565b92915050565b60008151905061012281610248565b92915050565b6000813590506101378161025f565b92915050565b6000806040838503121561015057600080fd5b600061015e858286016100fe565b925050602061016f85828601610128565b9150509250929050565b60006020828403121561018b57600080fd5b600061019984828501610113565b91505092915050565b6101ab816101e9565b82525050565b6101ba81610227565b82525050565b60006040820190506101d560008301856101a2565b6101e260208301846101b1565b9392505050565b60006101f482610207565b9050919050565b60008115159050919050565b600073ffffffffffffffffffffffffffffffffffffffff82169050919050565b6000819050919050565b61023a816101e9565b811461024557600080fd5b50565b610251816101fb565b811461025c57600080fd5b50565b61026881610227565b811461027357600080fd5b5056fea2646970667358221220cbc50d8bbb2502ee4e1a9ea43094d5822ef703fc7d41026dd88388d0c1132f1f64736f6c63430008000033",
  "immutableReferences": {},
  "source": "pragma solidity 0.8.0;\nimport '@openzeppelin/contracts/token/ERC20/IERC20.sol';\n\ncontract SimpleDefi {\nIERC20 dai;\nconstructor(address daiAddress) {\n    dai = IERC20(daiAddress);\n} \nfunction createTransfer(address recipient, uint amount) external {\n    dai.transfer(recipient, amount);\n}\n}",
  "sourcePath": "/Users/soumikpatra/Desktop/dai/contracts/SimpleDefi.sol",
  "compiler": {
    "name": "solc",
    "version": "0.8.0+commit.c7dfd78e.Emscripten.clang"
  },
  "schemaVersion": "3.4.4",
  "updatedAt": "2022-03-16T12:54:43.105Z",
  "networkType": "ethereum",
  "devdoc": {
    "kind": "dev",
    "methods": {},
    "version": 1
  },
  "userdoc": {
    "kind": "user",
    "methods": {},
    "version": 1
  }
}